{
  "_format": "hh3-artifact-1",
  "contractName": "TreasuryVault",
  "sourceName": "contracts/TreasuryVault.sol",
  "abi": [
    {
      "inputs": [
        {
          "internalType": "address",
          "name": "admin",
          "type": "address"
        },
        {
          "internalType": "contract IERC20",
          "name": "pyusdToken",
          "type": "address"
        }
      ],
      "stateMutability": "nonpayable",
      "type": "constructor"
    },
    {
      "inputs": [],
      "name": "AccessControlBadConfirmation",
      "type": "error"
    },
    {
      "inputs": [
        {
          "internalType": "address",
          "name": "account",
          "type": "address"
        },
        {
          "internalType": "bytes32",
          "name": "neededRole",
          "type": "bytes32"
        }
      ],
      "name": "AccessControlUnauthorizedAccount",
      "type": "error"
    },
    {
      "inputs": [],
      "name": "ReentrancyGuardReentrantCall",
      "type": "error"
    },
    {
      "anonymous": false,
      "inputs": [
        {
          "indexed": true,
          "internalType": "bytes32",
          "name": "scheduleId",
          "type": "bytes32"
        },
        {
          "indexed": true,
          "internalType": "address",
          "name": "worker",
          "type": "address"
        },
        {
          "indexed": false,
          "internalType": "uint256",
          "name": "amount",
          "type": "uint256"
        }
      ],
      "name": "Claimed",
      "type": "event"
    },
    {
      "anonymous": false,
      "inputs": [
        {
          "indexed": true,
          "internalType": "address",
          "name": "sender",
          "type": "address"
        },
        {
          "indexed": false,
          "internalType": "uint256",
          "name": "amount",
          "type": "uint256"
        }
      ],
      "name": "Deposited",
      "type": "event"
    },
    {
      "anonymous": false,
      "inputs": [
        {
          "indexed": true,
          "internalType": "bytes32",
          "name": "role",
          "type": "bytes32"
        },
        {
          "indexed": true,
          "internalType": "bytes32",
          "name": "previousAdminRole",
          "type": "bytes32"
        },
        {
          "indexed": true,
          "internalType": "bytes32",
          "name": "newAdminRole",
          "type": "bytes32"
        }
      ],
      "name": "RoleAdminChanged",
      "type": "event"
    },
    {
      "anonymous": false,
      "inputs": [
        {
          "indexed": true,
          "internalType": "bytes32",
          "name": "role",
          "type": "bytes32"
        },
        {
          "indexed": true,
          "internalType": "address",
          "name": "account",
          "type": "address"
        },
        {
          "indexed": true,
          "internalType": "address",
          "name": "sender",
          "type": "address"
        }
      ],
      "name": "RoleGranted",
      "type": "event"
    },
    {
      "anonymous": false,
      "inputs": [
        {
          "indexed": true,
          "internalType": "bytes32",
          "name": "role",
          "type": "bytes32"
        },
        {
          "indexed": true,
          "internalType": "address",
          "name": "account",
          "type": "address"
        },
        {
          "indexed": true,
          "internalType": "address",
          "name": "sender",
          "type": "address"
        }
      ],
      "name": "RoleRevoked",
      "type": "event"
    },
    {
      "anonymous": false,
      "inputs": [
        {
          "indexed": true,
          "internalType": "bytes32",
          "name": "scheduleId",
          "type": "bytes32"
        },
        {
          "indexed": true,
          "internalType": "address",
          "name": "worker",
          "type": "address"
        }
      ],
      "name": "ScheduleCancelled",
      "type": "event"
    },
    {
      "anonymous": false,
      "inputs": [
        {
          "indexed": true,
          "internalType": "bytes32",
          "name": "scheduleId",
          "type": "bytes32"
        },
        {
          "indexed": true,
          "internalType": "address",
          "name": "worker",
          "type": "address"
        },
        {
          "indexed": false,
          "internalType": "uint256",
          "name": "amount",
          "type": "uint256"
        },
        {
          "indexed": false,
          "internalType": "uint64",
          "name": "releaseAt",
          "type": "uint64"
        }
      ],
      "name": "Scheduled",
      "type": "event"
    },
    {
      "anonymous": false,
      "inputs": [
        {
          "indexed": true,
          "internalType": "address",
          "name": "recipient",
          "type": "address"
        },
        {
          "indexed": false,
          "internalType": "uint256",
          "name": "amount",
          "type": "uint256"
        }
      ],
      "name": "Withdrawn",
      "type": "event"
    },
    {
      "inputs": [],
      "name": "AUTOMATION_ROLE",
      "outputs": [
        {
          "internalType": "bytes32",
          "name": "",
          "type": "bytes32"
        }
      ],
      "stateMutability": "view",
      "type": "function"
    },
    {
      "inputs": [],
      "name": "DEFAULT_ADMIN_ROLE",
      "outputs": [
        {
          "internalType": "bytes32",
          "name": "",
          "type": "bytes32"
        }
      ],
      "stateMutability": "view",
      "type": "function"
    },
    {
      "inputs": [],
      "name": "TREASURER_ROLE",
      "outputs": [
        {
          "internalType": "bytes32",
          "name": "",
          "type": "bytes32"
        }
      ],
      "stateMutability": "view",
      "type": "function"
    },
    {
      "inputs": [
        {
          "internalType": "bytes32",
          "name": "scheduleId",
          "type": "bytes32"
        }
      ],
      "name": "cancelSchedule",
      "outputs": [],
      "stateMutability": "nonpayable",
      "type": "function"
    },
    {
      "inputs": [
        {
          "internalType": "bytes32",
          "name": "scheduleId",
          "type": "bytes32"
        },
        {
          "internalType": "address",
          "name": "worker",
          "type": "address"
        },
        {
          "internalType": "address",
          "name": "destination",
          "type": "address"
        }
      ],
      "name": "claim",
      "outputs": [],
      "stateMutability": "nonpayable",
      "type": "function"
    },
    {
      "inputs": [
        {
          "internalType": "uint256",
          "name": "amount",
          "type": "uint256"
        }
      ],
      "name": "deposit",
      "outputs": [],
      "stateMutability": "nonpayable",
      "type": "function"
    },
    {
      "inputs": [
        {
          "internalType": "bytes32",
          "name": "role",
          "type": "bytes32"
        }
      ],
      "name": "getRoleAdmin",
      "outputs": [
        {
          "internalType": "bytes32",
          "name": "",
          "type": "bytes32"
        }
      ],
      "stateMutability": "view",
      "type": "function"
    },
    {
      "inputs": [
        {
          "internalType": "bytes32",
          "name": "scheduleId",
          "type": "bytes32"
        }
      ],
      "name": "getSchedule",
      "outputs": [
        {
          "components": [
            {
              "internalType": "address",
              "name": "worker",
              "type": "address"
            },
            {
              "internalType": "uint256",
              "name": "amount",
              "type": "uint256"
            },
            {
              "internalType": "uint64",
              "name": "releaseAt",
              "type": "uint64"
            },
            {
              "internalType": "bool",
              "name": "claimed",
              "type": "bool"
            }
          ],
          "internalType": "struct TreasuryVault.Schedule",
          "name": "",
          "type": "tuple"
        }
      ],
      "stateMutability": "view",
      "type": "function"
    },
    {
      "inputs": [
        {
          "internalType": "bytes32",
          "name": "role",
          "type": "bytes32"
        },
        {
          "internalType": "address",
          "name": "account",
          "type": "address"
        }
      ],
      "name": "grantRole",
      "outputs": [],
      "stateMutability": "nonpayable",
      "type": "function"
    },
    {
      "inputs": [
        {
          "internalType": "bytes32",
          "name": "role",
          "type": "bytes32"
        },
        {
          "internalType": "address",
          "name": "account",
          "type": "address"
        }
      ],
      "name": "hasRole",
      "outputs": [
        {
          "internalType": "bool",
          "name": "",
          "type": "bool"
        }
      ],
      "stateMutability": "view",
      "type": "function"
    },
    {
      "inputs": [],
      "name": "pyusd",
      "outputs": [
        {
          "internalType": "contract IERC20",
          "name": "",
          "type": "address"
        }
      ],
      "stateMutability": "view",
      "type": "function"
    },
    {
      "inputs": [
        {
          "internalType": "bytes32",
          "name": "role",
          "type": "bytes32"
        },
        {
          "internalType": "address",
          "name": "callerConfirmation",
          "type": "address"
        }
      ],
      "name": "renounceRole",
      "outputs": [],
      "stateMutability": "nonpayable",
      "type": "function"
    },
    {
      "inputs": [
        {
          "internalType": "bytes32",
          "name": "role",
          "type": "bytes32"
        },
        {
          "internalType": "address",
          "name": "account",
          "type": "address"
        }
      ],
      "name": "revokeRole",
      "outputs": [],
      "stateMutability": "nonpayable",
      "type": "function"
    },
    {
      "inputs": [
        {
          "internalType": "bytes32",
          "name": "scheduleId",
          "type": "bytes32"
        },
        {
          "internalType": "address",
          "name": "worker",
          "type": "address"
        },
        {
          "internalType": "uint256",
          "name": "amount",
          "type": "uint256"
        },
        {
          "internalType": "uint64",
          "name": "releaseAt",
          "type": "uint64"
        }
      ],
      "name": "schedulePayout",
      "outputs": [],
      "stateMutability": "nonpayable",
      "type": "function"
    },
    {
      "inputs": [
        {
          "internalType": "bytes4",
          "name": "interfaceId",
          "type": "bytes4"
        }
      ],
      "name": "supportsInterface",
      "outputs": [
        {
          "internalType": "bool",
          "name": "",
          "type": "bool"
        }
      ],
      "stateMutability": "view",
      "type": "function"
    },
    {
      "inputs": [
        {
          "internalType": "address",
          "name": "to",
          "type": "address"
        },
        {
          "internalType": "uint256",
          "name": "amount",
          "type": "uint256"
        }
      ],
      "name": "withdraw",
      "outputs": [],
      "stateMutability": "nonpayable",
      "type": "function"
    }
  ],
  "bytecode": "0x60a060405234801561000f575f5ffd5b5060405161127d38038061127d83398101604081905261002e916101cd565b600180556001600160a01b03821661007e5760405162461bcd60e51b815260206004820152600e60248201526d18591b5a5b881c995c5d5a5c995960921b60448201526064015b60405180910390fd5b6001600160a01b0381166100c55760405162461bcd60e51b815260206004820152600e60248201526d1c1e5d5cd9081c995c5d5a5c995960921b6044820152606401610075565b6100cf5f8361010d565b506100fa7f3496e2e73c4d42b75d702e60d9e48102720b8691234415963a5a857b86425d078361010d565b506001600160a01b031660805250610205565b5f828152602081815260408083206001600160a01b038516845290915281205460ff166101ad575f838152602081815260408083206001600160a01b03861684529091529020805460ff191660011790556101653390565b6001600160a01b0316826001600160a01b0316847f2f8788117e7eff1d82e926ec794901d17c78024a50270940304540a733656f0d60405160405180910390a45060016101b0565b505f5b92915050565b6001600160a01b03811681146101ca575f5ffd5b50565b5f5f604083850312156101de575f5ffd5b82516101e9816101b6565b60208401519092506101fa816101b6565b809150509250929050565b60805161104b6102325f395f818161012c0152818161080c015281816109920152610c57015261104b5ff3fe608060405234801561000f575f5ffd5b50600436106100fb575f3560e01c806391d1485411610093578063cca3488011610063578063cca34880146102fc578063d547741f1461030f578063f0a3a97c14610322578063f3fef3a314610349575f5ffd5b806391d14854146102bc578063a217fddf146102cf578063b46cab2b146102d6578063b6b55f25146102e9575f5ffd5b80632f2ff15d116100ce5780632f2ff15d146101aa57806336568abe146101bf5780633adc277a146101d257806369ceec3c146102a9575f5ffd5b806301ffc9a7146100ff57806322e669d314610127578063248a9ca31461016657806324c20eec14610196575b5f5ffd5b61011261010d366004610e78565b61035c565b60405190151581526020015b60405180910390f35b61014e7f000000000000000000000000000000000000000000000000000000000000000081565b6040516001600160a01b03909116815260200161011e565b610188610174366004610ea6565b5f9081526020819052604090206001015490565b60405190815260200161011e565b6101885f516020610ff65f395f51905f5281565b6101bd6101b8366004610ed8565b610392565b005b6101bd6101cd366004610ed8565b6103bc565b6102616101e0366004610ea6565b604080516080810182525f808252602082018190529181018290526060810191909152505f90815260026020818152604092839020835160808101855281546001600160a01b031681526001820154928101929092529091015467ffffffffffffffff811692820192909252600160401b90910460ff161515606082015290565b60405161011e919081516001600160a01b031681526020808301519082015260408083015167ffffffffffffffff169082015260609182015115159181019190915260800190565b6101bd6102b7366004610f02565b6103f4565b6101126102ca366004610ed8565b610605565b6101885f81565b6101bd6102e4366004610f53565b61062d565b6101bd6102f7366004610ea6565b61091f565b6101bd61030a366004610ea6565b610a47565b6101bd61031d366004610ed8565b610b71565b6101887f3496e2e73c4d42b75d702e60d9e48102720b8691234415963a5a857b86425d0781565b6101bd610357366004610f8c565b610b95565b5f6001600160e01b03198216637965db0b60e01b148061038c57506301ffc9a760e01b6001600160e01b03198316145b92915050565b5f828152602081905260409020600101546103ac81610d13565b6103b68383610d1d565b50505050565b6001600160a01b03811633146103e55760405163334bd91960e11b815260040160405180910390fd5b6103ef8282610dac565b505050565b5f516020610ff65f395f51905f5261040b81610d13565b6001600160a01b0384166104585760405162461bcd60e51b815260206004820152600f60248201526e1ddbdc9ad95c881c995c5d5a5c9959608a1b60448201526064015b60405180910390fd5b5f83116104775760405162461bcd60e51b815260040161044f90610fb4565b428267ffffffffffffffff1610156104c35760405162461bcd60e51b815260206004820152600f60248201526e1c995b19585cd9481a5b881c185cdd608a1b604482015260640161044f565b5f85815260026020526040902080546001600160a01b03161561051a5760405162461bcd60e51b815260206004820152600f60248201526e7363686564756c652065786973747360881b604482015260640161044f565b604080516080810182526001600160a01b03808816808352602080840189815267ffffffffffffffff808a168688019081525f606088018181528f8252600295869052908990209751885497166001600160a01b031990971696909617875591516001870155905194909101805493511515600160401b0268ffffffffffffffffff19909416949091169390931791909117909155905187907fee3da73158c40f0185f68cee243d424e7805a78ea75501d129940069152866cd906105f5908890889091825267ffffffffffffffff16602082015260400190565b60405180910390a3505050505050565b5f918252602082815260408084206001600160a01b0393909316845291905290205460ff1690565b610635610e15565b5f516020610ff65f395f51905f5261064c81610d13565b5f84815260026020526040902080546001600160a01b031661069e5760405162461bcd60e51b815260206004820152600b60248201526a6e6f207363686564756c6560a81b604482015260640161044f565b6002810154600160401b900460ff16156106ec5760405162461bcd60e51b815260206004820152600f60248201526e185b1c9958591e4818db185a5b5959608a1b604482015260640161044f565b60028101544267ffffffffffffffff909116111561073b5760405162461bcd60e51b815260206004820152600c60248201526b1b9bdd081c995b19585cd95960a21b604482015260640161044f565b6001600160a01b0383166107885760405162461bcd60e51b815260206004820152601460248201527319195cdd1a5b985d1a5bdb881c995c5d5a5c995960621b604482015260640161044f565b80546001600160a01b038581169116146107d65760405162461bcd60e51b815260206004820152600f60248201526e0eedee4d6cae440dad2e6dac2e8c6d608b1b604482015260640161044f565b60028101805468ff00000000000000001916600160401b179055600181015460405163a9059cbb60e01b81526001600160a01b037f0000000000000000000000000000000000000000000000000000000000000000169163a9059cbb916108559187916004016001600160a01b03929092168252602082015260400190565b6020604051808303815f875af1158015610871573d5f5f3e3d5ffd5b505050506040513d601f19601f820116820180604052508101906108959190610fd6565b50836001600160a01b0316857f0508a8b4117d9a7b3d8f5895f6413e61b4f9a2df35afbfb41e78d0ecfff1843f83600101546040516108d691815260200190565b60405180910390a350505f838152600260208190526040822080546001600160a01b0319168155600181019290925501805468ffffffffffffffffff191690556103ef60018055565b610927610e15565b7f3496e2e73c4d42b75d702e60d9e48102720b8691234415963a5a857b86425d0761095181610d13565b5f82116109705760405162461bcd60e51b815260040161044f90610fb4565b6040516323b872dd60e01b8152336004820152306024820152604481018390527f00000000000000000000000000000000000000000000000000000000000000006001600160a01b0316906323b872dd906064016020604051808303815f875af11580156109e0573d5f5f3e3d5ffd5b505050506040513d601f19601f82011682018060405250810190610a049190610fd6565b5060405182815233907f2da466a7b24304f47e87fa2e1e5a81b9831ce54fec19055ce277ca2f39ba42c49060200160405180910390a250610a4460018055565b50565b5f516020610ff65f395f51905f52610a5e81610d13565b5f82815260026020526040902080546001600160a01b0316610ab05760405162461bcd60e51b815260206004820152600b60248201526a6e6f207363686564756c6560a81b604482015260640161044f565b6002810154600160401b900460ff1615610afe5760405162461bcd60e51b815260206004820152600f60248201526e185b1c9958591e4818db185a5b5959608a1b604482015260640161044f565b5f83815260026020819052604080832080546001600160a01b031916815560018101849055909101805468ffffffffffffffffff19169055825490516001600160a01b039091169185917f6b3e01872ad8692cfd4a45e25ac6fc0881dad875133dd1aef8a2eddc5395edf19190a3505050565b5f82815260208190526040902060010154610b8b81610d13565b6103b68383610dac565b610b9d610e15565b7f3496e2e73c4d42b75d702e60d9e48102720b8691234415963a5a857b86425d07610bc781610d13565b6001600160a01b038316610c125760405162461bcd60e51b81526020600482015260126024820152711c9958da5c1a595b9d081c995c5d5a5c995960721b604482015260640161044f565b5f8211610c315760405162461bcd60e51b815260040161044f90610fb4565b60405163a9059cbb60e01b81526001600160a01b038481166004830152602482018490527f0000000000000000000000000000000000000000000000000000000000000000169063a9059cbb906044016020604051808303815f875af1158015610c9d573d5f5f3e3d5ffd5b505050506040513d601f19601f82011682018060405250810190610cc19190610fd6565b50826001600160a01b03167f7084f5476618d8e60b11ef0d7d3f06914655adb8793e28ff7f018d4c76d505d583604051610cfd91815260200190565b60405180910390a250610d0f60018055565b5050565b610a448133610e3f565b5f610d288383610605565b610da5575f838152602081815260408083206001600160a01b03861684529091529020805460ff19166001179055610d5d3390565b6001600160a01b0316826001600160a01b0316847f2f8788117e7eff1d82e926ec794901d17c78024a50270940304540a733656f0d60405160405180910390a450600161038c565b505f61038c565b5f610db78383610605565b15610da5575f838152602081815260408083206001600160a01b0386168085529252808320805460ff1916905551339286917ff6391f5c32d9c69d2a47ea670b442974b53935d1edc7fd64eb21e047a839171b9190a450600161038c565b600260015403610e3857604051633ee5aeb560e01b815260040160405180910390fd5b6002600155565b610e498282610605565b610d0f5760405163e2517d3f60e01b81526001600160a01b03821660048201526024810183905260440161044f565b5f60208284031215610e88575f5ffd5b81356001600160e01b031981168114610e9f575f5ffd5b9392505050565b5f60208284031215610eb6575f5ffd5b5035919050565b80356001600160a01b0381168114610ed3575f5ffd5b919050565b5f5f60408385031215610ee9575f5ffd5b82359150610ef960208401610ebd565b90509250929050565b5f5f5f5f60808587031215610f15575f5ffd5b84359350610f2560208601610ebd565b925060408501359150606085013567ffffffffffffffff81168114610f48575f5ffd5b939692955090935050565b5f5f5f60608486031215610f65575f5ffd5b83359250610f7560208501610ebd565b9150610f8360408501610ebd565b90509250925092565b5f5f60408385031215610f9d575f5ffd5b610fa683610ebd565b946020939093013593505050565b6020808252600890820152670616d6f756e743d360c41b604082015260600190565b5f60208284031215610fe6575f5ffd5b81518015158114610e9f575f5ffdfe85d36e3b488c35c2a15344b305cb84e2000f26d4f3a7c1e8a516f0e82aee752aa2646970667358221220535f0bca989280349d9884f7853df689e2dcce969118f0599b3997ebdb08239a64736f6c634300081c0033",
  "linkReferences": {},
  "deployedLinkReferences": {},
  "immutableReferences": {
    "617": [
      {
        "length": 32,
        "start": 300
      },
      {
        "length": 32,
        "start": 2060
      },
      {
        "length": 32,
        "start": 2450
      },
      {
        "length": 32,
        "start": 3159
      }
    ]
  },
  "inputSourceName": "project/contracts/TreasuryVault.sol",
  "buildInfoId": "solc-0_8_28-a118d5e0abf73be9a8efb4c2a0327e5427baadb3"
}